:020000040000FA
:1000000000400020E98D0100258E0100278E0100AF
:1000100000000000000000000000000000000000E0
:10002000000000000000000000000000298E010018
:1000300000000000000000002B8E01002D8E01004A
:100040002F8E01005D3D00002D9501002F8E0100D7
:100050002F8E010000000000E98E01002F8E0100AC
:1000600069E800009D9A0100A19301002F8E010014
:100070002F8E01002F8E01002F8E01002F8E010088
:100080002F8E01002F8E01002F8E01002F8E010078
:100090002F8E0100D5890100A18A0100A5E9000089
:1000A000B5E900002F8E01000000000000000000F4
:1000B0000000000000000000000000000000000040
:1000C00010B5064C2378002B07D1054B002B02D02E
:1000D000044800E000BF0123237010BD2001002070
:1000E0000000000058870300044B10B5002B03D01C
:1000F0000349044800E000BF10BDC04600000000F6
:100100002401002058870300164B002B00D1144B0C
:100110009D46402292029A1A924600218B460F4633
:100120001348144A121A28F033FE0F4B002B00D04C
:1001300098470E4B002B00D0984700200021040068
:100140000D000D48002802D00C4800E000BF20F050
:10015000C7FB2000290028F071FB20F00DFBC046F2
:100160000000080000400020000000000000000027
:1001700018010020E02F0020000000000000000017
:1001800010B54A68014926F029FE10BD843B0300E2
:1001900010B50400080021F070F90300002C03D012
:1001A000012C06D0002003E00348002B00DC0348AC
:1001B00010BD40002043FBE78CE7020084E702000B
:1001C00043684B6083688B60C3680800CB60014B59
:1001D0000B6070476890020030B5040087B00D00D6
:1001E0000020042A25D1200021F047F9AB0722D1B5
:1001F000184B2A689A421ED103AA290011F034FB39
:10020000102026F03AF8144BE2680360039B616803
:1002100053435B184360049B6168019353435B182D
:10022000059983604A43C260002902DAE2689B1A9A
:10023000836007B030BD002301002A00206802F06F
:10024000F5FCE36858436368C01801234000184375
:10025000EFE7C046A8A402002C900200F0B50E0003
:10026000002785B0110003901D00012203233000F8
:10027000009712F021F8102025F0FFFF039B0400E7
:10028000036001234760C36028689E4205D102F0E5
:10029000F5FBA060200005B0F0BD02F0EFFB606050
:1002A000686802F0EBFBA060032EF3D1A86802F0AF
:1002B000E5FBE0600028EDD101480DF087F8C0466D
:1002C00096FB020070B50D004A688B68084904006F
:1002D00026F084FDEA68012A04D10649200026F0B0
:1002E000BCFC70BD0449200026F078FDF9E7C0464B
:1002F000A0FB020060020300ADFB0200136810B512
:100300001400002B05D1A42904D1406825F0BCF9C4
:10031000206010BDB9235B00994201D18068F5E7E8
:10032000024B9942F5D1C068F0E7C046BF02000019
:100330000023820708D10068044A0133904203D0A9
:10034000034BC01A4342434118007047E09002003B
:10035000A4900200044B88600B60044B08004B60C3
:100360000023CB607047C0462C9802005F15020046
:1003700030B585B00500080069460CF0F7FB0400B5
:1003800020000CF055FC011E02D1064805B030BD1E
:100390002B1D0022180023F069F80028F0D0024835
:1003A000F4E7C0468CE7020084E7020070B5050060
:1003B000102025F062FF0400074B696808C023F095
:1003C0004BF8AB68E968A3606B68E0689A0028F0B6
:1003D000C3FC200070BDC046E0900200F7B50400E9
:1003E0000D0000268B0704D10B68214E9E1B734223
:1003F0005E41AB68002B0AD1002E03D01D492000BE
:1004000026F02BFC1C49200026F027FCF7BD002E0F
:1004100003D01A49200026F020FC1949200026F0BC
:100420001CFC002701236A68BA4207D8154920003E
:1004300026F013FC002EE9D01349E4E7BA0001923C
:10044000EA68B9005258002A0FD0042A0DD0002BB8
:1004500003D10E49200026F000FCEB68B900595882
:100460000122200002F03AFA00230137DBE7C04600
:10047000A4900200EBFB0200F2FB0200F8FB02007A
:1004800003FC02001E0703006002030005FC0200DB
:1004900010B5830707D1044B02689A4203D1034980
:1004A000034824F0ABFA10BDA4900200B3FB020095
:1004B000A0A7020070B50D000400FFF7E9FF2900B6
:1004C000201D012222F0D2FF004870BDA4B302001B
:1004D00070B50D000400FFF7DBFF2900201D02228C
:1004E00022F0C4FF004870BDA4B3020070B506003E
:1004F00008680D000124FFF7CBFFB44201D3044884
:1005000070BDA300E958286820F0C7FF0134F4E764
:10051000A4B3020070B50D000400FFF7B9FF280076
:1005200000210CF023FB050028000CF081FB011ECC
:1005300001D1044870BD231D0322180022F096FF4C
:10054000F2E7C046A4B3020010B50400FFF7A0FF15
:10055000201D23F019F8014810BDC046A4B30200C5
:1005600010B5012220F0CAFF004810BDA4B302005C
:1005700070B504000D00FFF78BFF201D022229003B
:1005800022F074FF002804D1034822F022FE0CF070
:10059000A5F8024870BDC04680A90200A4B30200BD
:1005A00010B50400FFF774FF201D22F0CEFF0028D5
:1005B00003D10249024824F021FA10BDD5FB020004
:1005C00080A90200F8B50D0001280BD0002803D047
:1005D00002280BD0002004E08B681448002B00D1C7
:1005E0001348F8BD8B685B001843FAE7032400202A
:1005F0000C408442F5D10F4B0E6820009E42F0D192
:100600004F68A74203D1012076003043E9E7EA684A
:10061000A3009958002906D0042904D002200CF028
:100620003DF9401036180134EBE7C0468CE7020074
:1006300084E70200A4900200F8B5040010200D0029
:1006400025F01BFE0600094B210008C607003000FC
:1006500022F002FFA4002C19A54201D13800F8BDF8
:10066000012202CD300022F001FFF5E7E090020008
:10067000F7B504000E00171E2CD0FFF709FF194D27
:10068000B4422DD000210800FFF7D6FF002105005D
:1006900030000CF06BFA019001980CF0C9FA061EBC
:1006A0000CD1002F1CD0E06825F016FE6B6863604B
:1006B000AB68A360EB680B4DE36011E0201D0022E6
:1006C000310022F0D3FE0028E6D031002800FFF7E9
:1006D000F1FEE1E78842D5D1200020F0F1FE0500CF
:1006E0002800FEBDA4B30200F0B589B00400039059
:1006F000029101920027FFF71BFEB84207D13A0092
:1007000003AB0121224820F04FFF04000137029D76
:1007100000262800FFF70CFEB04207D1320002ABE2
:1007200001211B4820F040FF05000136019B002BF2
:1007300005D00023AA680193A36893420DD0154BFE
:1007400006940493144B05930023079304A820F008
:1007500006FF011E12D101230193002F02D02000B9
:10076000FFF7F2FE002E02D02800FFF7EDFE019BFE
:100770000A48002B00D10A4809B0F0BD2B1D002209
:10078000180022F073FE0028E0D10190E5E7C04692
:10079000E09002002C9802005F1502008CE7020036
:1007A00084E7020073B50C00150000910192002649
:1007B0008B0704D10B68394E9E1B73425E41320099
:1007C0001F2868D819F084FA2810176767671C6714
:1007D0006767676767212D346767673B6767676788
:1007E0006740464A5358675D2900200020F079FE93
:1007F0000400200076BD2900200020F0CAFEF7E7A3
:100800006946022020F0A6FEF2E7002E04D06946D9
:100810000220FFF76BFEECE72900200020F057FED6
:10082000E6E729002000002EE0D0FFF773FEE0E7A6
:1008300029002000FFF71CFF002EDAD1D8E7694617
:10084000022020F05BFED3E7012229002000FFF701
:100850004BFFCDE7012221002800F8E72800FFF731
:1008600067FD002815D0A368AA68934211D129001A
:10087000200020F0CAFEBBE72900200020F0BDFECA
:10088000B6E7201D0022290022F0F0FD044C0028CC
:10089000AFD1044CADE70024ABE7C046E0900200C6
:1008A0008CE7020084E70200F0B50F00496885B0CC
:1008B00005001600002901D0002A05D139002800C2
:1008C00020F0B4FF05B0F0BD0F321309C918009332
:1008D00020F01DFF0F22A868B9687C68324000D163
:1008E0001032009B1E19234BF3185B00C018214BDC
:1008F0000290E3185B00CB18019010209C46210069
:100900000023801A002921D1C3401A48029A844644
:100910006400141B2380009B5B00E41A009B0234DC
:1009200063445A00200028F033FA002E04D07300EC
:10093000023BE35A002B1BD001216E603B78DB07A2
:10094000DA0F2B788B4313432B70BBE76246128878
:10095000013913431A00C2400393019B1A80019A84
:10096000039B023A0192022252421B049444C9E7BB
:10097000013EDAE7FFFFFF7FF0B54B6815005268D4
:1009800089B006000C00934201D22C000D00012119
:10099000227863680A4201D12A781140C9183000D0
:1009A00020F0B5FEB36822780193A3681700029384
:1009B000636829789C46AB684F4003930123180075
:1009C0001F408B4306936346904302006046591EC6
:1009D000019B04936B681B1A07934B1C18D1634649
:1009E0005900019B5918002F02D001230B800231BE
:1009F000019820F00FFE0121706022782B7853407F
:100A00003278DB078A43DB0F1343337009B0F0BD44
:100A1000029B13481B881B189B180593079B5B18A8
:100A20008B421AD8039B039A1B8802321B1803922D
:100A3000069A01399B18059A5A4092B21B0CD71995
:100A40000693049A059B17801A0C049B3F0C0233F3
:100A50000493029B02330293BFE7014BE8E7C046D1
:100A6000FFFF0000F0B5060095B0069353680D0037
:100A7000591C0492009320F04AFE049B00215B68FD
:100A8000B0685A1C5200009328F082F9002373606A
:100A9000049B28005B68591C009320F038FE0499E1
:100AA000280020F0C3FEAB686F680193069B9B682B
:100AB0000393069B5B680293B3680793029BBB4258
:100AC0002DD82ED3039A3900019820F063FE002818
:100AD00023D10123079A686013807360049B1A78FE
:100AE000069B1B785A4001231A4214D032781343D4
:100AF00033706B68002B0ED0012111A8494220F001
:100B0000B4FE11AA3100300021F0B6F8069A29008F
:100B1000280021F0B1F815B0F0BD002801DA00235B
:100B2000DBE7824A029B9B185B009C460022039BEA
:100B3000634405931B8800921AB2002A63DA0022EC
:100B4000019B7C001A537B1C102709936B60019B4F
:100B5000A01C00991B180893791A019B0A91089907
:100B60008B4256D3059B009A1B8893400893029BA7
:100B7000012B0AD91022039B00996344023B1B8876
:100B8000521AD340089A1A430892019B029A1C19E0
:100B9000099B9B1A654A73609B18079A5B00D318E0
:100BA0000A93634602330E936B680B930B9A029B76
:100BB000934239D313005D4A102194460024019AD0
:100BC00063445B00D318009A891A019A9A4200D8AC
:100BD0009EE07368002B07D0544A07999A18520078
:100BE000525A002A00D19DE06B68002B00D175E7B6
:100BF0004E4A01999A185200525A002A00D06DE7C5
:100C0000013B6B60F0E7009A5B0001329BB292B24D
:100C100091E71988009F0800B84002431A800A9A99
:100C20000233D1408AB29AE7A31E20880D931B8815
:100C300000041843089919F05FF80E9B0022E31A8C
:100C40000C931900039B05909C4609928C4212D884
:100C500023889A4234D3D31A5A42190C9BB2228069
:100C60005A1E9341CA18002A2CD003990C9B8C461B
:100C700000210F0041E0099B009F180C63461B8870
:100C8000BB4018436B4609909F8C059B5F430B88C4
:100C90009F4203D2D81B0F9090420CD8D31AFF1852
:100CA0007B420B80BBB23A0C5F1EBB41D2180223C1
:100CB00002319C44CAE70F9B9A1A0A800022F6E789
:100CC0009A1A22800A9B059A023B5A800A930B9B30
:100CD0000D9C013B6B6067E7380C09906046009FF4
:100CE0000088B840099F074318884118B8B24118D6
:100CF000022019808444090C02339C42ECD82388DA
:100D00005918059B2180013B090C521A0593AAE74B
:100D10001A88009F100038418A402043188094B2FE
:100D2000023B52E7013B736053E7C046FFFFFF7F82
:100D3000436870B55A00002384680A4DA218944293
:100D400006D30278D20700D55B4201200B6070BD4C
:100D5000023AAB4203D816881B043343EFE7002066
:100D6000F5E7C046FF7F0000032230B502400121B5
:100D7000002A04D1084C05680B00A54209D00B00DD
:100D8000034006D1002A04D1036804481B1A5842C4
:100D90004341180030BDC04694E70200ECB80200A1
:100DA00010B50400FFF7E0FF012200280AD1032359
:100DB00002002340022B05D103480440063C2200D8
:100DC000541EA241100010BD070080FF044B886034
:100DD0000B60044B08004B600023CB607047C0469B
:100DE0002C980200B925020010B501F05FFD084BF8
:100DF00042680848D31859424B41AC215B428B43AF
:100E0000B02189005B18044907F04CFB0BF066FC2D
:100E100040FDFFFF50AC020008FC0200F7B50400E3
:100E20000E00019301208B180A0000210093009B03
:100E3000934212D82725002900D0053D224F2A00D1
:100E40003900200025F0CAFF009B9E4214D32A00DF
:100E50003900200025F0C2FFF7BD1378272B08D0FA
:100E6000223B5D426B41DBB20132002BDFD02725F4
:100E7000E4E700230100F7E73278AA4205D12A000F
:100E80001249200025F0AAFF1AE011495C2A14D06B
:100E90001F2A09D97F2A15D0019B002B02D053B2FB
:100EA000002B07DB3900ECE70A490A2A05D00A497A
:100EB0000D2A02D0092A05D10849200025F0CDFECF
:100EC0000136C1E70649DCE74200030041000300A8
:100ED00045000300480003004B0003004E000300E0
:100EE00051000300194B70B506000C0098420FD159
:100EF0004968A0680FF0AEFD051E09D0200026F05D
:100F000008F90023ED00236006331D43280070BD5F
:100F1000102025F0B2F96168050081600660A068C4
:100F20000FF07AFD63686860591C2368994208D104
:100F3000A368EB600023EA68A9685354A3602360A8
:100F4000E4E7A06825F0B7F9E860F3E7CC99020080
:100F500070B504000D00002A05D00FF0ADFDC300F0
:100F60000620184370BD0FF075FD0028F7D12A0048
:100F70002100024821F0F8F9F4E7C046CC990200BC
:100F800010B50A000100024821F0EEF910BDC0467C
:100F900060920200094B10B50340062B01D1C00836
:100FA00010BD830708D1064B02689A4204D18168BC
:100FB000C0680FF081FDF3E7FFF716FF070080FF21
:100FC000CC990200064B10B50340062B03D1C00894
:100FD00024F0B9FC10BD8368C0680B60FAE7C04616
:100FE000070080FFF0B50F00002589B01100060052
:100FF0001C003800009503232A0011F05DF90E2033
:10100000AF420FD0012F0FD102AA102104A814F073
:10101000F7FE216802A82A0001F060FC04A9300054
:10102000FFF760FF09B0F0BD2068830722D1164B9F
:1010300002689A421ED104A9FFF7C4FF134B0500B2
:1010400020680340062B13D1C00824F06DFC040077
:10105000002C04D1049928000FF0DEFC04001020BD
:10106000049F25F00AF906608760C5604460D9E7EF
:101070004468EDE704A9012201F0BAFE00220599B7
:101080000498FFF765FFCDE760920200070080FF3C
:10109000F0B58DB00400039101F008FC04A906002E
:1010A0002000FFF78FFF039B01902F489A0705D17F
:1010B0001B6883420AD02D4A934207D0C36800229E
:1010C0000293012103AB029CA0470390002406AACF
:1010D00005A9039801F074FD2500059BA3420ED8D5
:1010E0002900002508A826F003F80A9C059BAB42BE
:1010F00021D808A93000FFF7F5FE0DB0F0BD069B22
:10110000A700D85901F0D2FBB04202D018480CF029
:1011100021FB002C01D0049BED18069BD859154BE0
:101120000340062B05D1C00824F003FC2D18013420
:10113000D3E78068FAE7002D06D02000049A0199D1
:1011400027F00AFE049BE418069AAB00985807A9FA
:10115000FFF738FF079A0100200027F0FDFD079BED
:101160000135E418C2E7C04648E702000CA00200BF
:101170007E000300070080FFF0B58BB00490086884
:101180000D000692079301F091FB0400686801F0DE
:101190008DFB0600A04202D06868FFF725FE08A973
:1011A0002868FFF70FFF040009A96868FFF70AFF26
:1011B000089A0590A3180393049B2700022B19D9C2
:1011C000AB681D498B4206D00121300000912100FF
:1011D00004F04AF80700049B032B0BD0EB68164A77
:1011E000934207D00122210000923000089A04F0B7
:1011F0003BF80390039B059AD91B069B380000938C
:10120000099B21F092F8002806D1079B0138002B9A
:101210000CD00A480CF0DAF8094B9E4208D10100C4
:10122000200022F038F84400012020430BB0F0BD2C
:10123000041B6400F8E7C046A4B302006A00030080
:10124000CC990200F0B5070087B008680D0001F0E6
:101250002DFB04A906002868FFF7B4FE05A90400C9
:101260006868FFF7AFFE03902000022F07D9012323
:101270000093AB68049A2100300003F0F5FF059A53
:10128000041B049BA418064D9C4205D8039927F023
:1012900054FD002800D1034D280007B0F0BDC04622
:1012A00084E702008CE7020073B50D000600694672
:1012B0002868FFF787FE01A904006868FFF782FE2F
:1012C0000100022E02D908480CF072FA019A009827
:1012D000064D824206D8801A201827F02EFD0028DD
:1012E00000D1034D280076BD5800030084E70200BA
:1012F0008CE70200F0B58FB0079010680C00160064
:1013000001F0D4FA0690012C31D0706801F0CEFAC9
:10131000069B984202D07068FFF766FD0DA97068C1
:10132000FFF750FE0D9B089009930DA93068FFF759
:1013300049FE0D9B0B900493079B012B1CD1049B32
:101340005D1E01235B420A9300242700049B039443
:101350000593059B002B13D1039B002B23D1214B1D
:10136000069A0E209A4200D01F480FB0F0BD072306
:1013700009931E4B0893D8E7012300250A93E3E75E
:101380000B9B09995A1901230898009320F0CDFF6F
:10139000002816D1039B002B19D1079B002B09D1E4
:1013A0002F00049B5C1E049B0134E21B934212D16C
:1013B0003068DAE7079B2C00012B0AD001232F00AD
:1013C00003930A9BED18059B013B0593C1E72C0095
:1013D000F7E7039FE7E70B9B0698D91920F0C4FFB6
:1013E000C3E7C046CC99020050920200D700030028
:1013F000F0B589B0049008680D0001F057FA0400B8
:10140000686801F053FA0700A04202D06868FFF74D
:10141000EBFC06A92868FFF7D5FD060007A9686858
:10142000FFF7D0FD069A0590B3180393049B340090
:10143000022B19D9AB681E498B4206D00121380016
:101440000091310003F010FF0400049B032B0BD02C
:10145000EB68174A934207D001223100009238000E
:10146000069A03F001FF03900025079BAB4212D1BF
:10147000039B2000191B21F01DFF013045000120B6
:10148000284309B0F0BD0599200027F056FC00283C
:1014900008D101353400079A039BA6189E42F2D961
:1014A0006D00ECE7200021F0EDFE0600F2E7C046FB
:1014B000A4B3020010B50100014821F047F810BDA7
:1014C000D532020010B50100014821F03FF810BDEF
:1014D000E7320200F7B50600080001A9FFF772FD28
:1014E000019B0500002B01D11348FEBD134B0400E6
:1014F0009E4207D10027019A631B9A4211D8002F00
:1015000007D1F1E70E4B9E42F4D0019A631B9A4239
:1015100001D80C48E9E72078B04701340028F4D11D
:10152000E2E7207807F098F8002803D02078B04749
:10153000071ED9D00134DEE784E70200C18600002F
:10154000D98600008CE7020010B501000148FFF7C2
:10155000C1FF10BD4186000010B501000148FFF732
:10156000B9FF10BD5986000010B501000148FFF712
:10157000B1FF10BD7186000010B501000148FFF7F2
:10158000A9FF10BDC186000010B501000148FFF79A
:10159000A1FF10BDD9860000F0B585B006000C0093
:1015A000170001F083F9694605003000FFF70AFDD6
:1015B0000600042F23D10098A30715D1114B2268F0
:1015C0009A4211D101AA210010F04EF9002802D14F
:1015D0000D480CF0EDF80199029A2800521A711882
:1015E00020F0C2FE05B0F0BD00230100220028005B
:1015F00001F01CFB335C01205B001843F2E7002084
:10160000F0E7C046A8A4020066FC020070B51D0009
:101610008EB0002900D174E018683B4C03002340D1
:10162000062B05D0830726D1384B02689A4222D177
:101630000239012962D80AA9FFF7C4FC060028680C
:101640000440062C15D1C00824F06EF90400002CCB
:1016500004D10A9930000FF0DFF9040010200A9D30
:1016600024F00BFE2A4B85600360C66044600EB018
:1016700070BD4468EBE7012940D80122104210D028
:10168000441021000AA825F033FD0C9B0021220004
:101690001800019327F07CFB0AA91D48FFF722FCE4
:1016A000E5E703A920F0BEFF002805D0049A0399BE
:1016B000174820F059FEDAE7286801F0F9FA1021FE
:1016C000002800D0411006A825F001FD0AA92868CD
:1016D0000BF04CFA040020000BF0AAFA002801D10C
:1016E00006A9DAE701F0CAF9FF2802D909480BF088
:1016F0006DFEC1B206A825F04AFDECE706480CF0E5
:1017000029F80648B3E7C046070080FFCC990200DD
:101710006092020033FC02004CFC02005092020076
:1017200073B50400080001A91600FFF74BFC050083
:10173000042E06D10300019A0749200025F04EFB34
:1017400073BD0649200025F088FA0123019A29007B
:101750002000FFF763FBF3E7C30003008F5903008A
:101760000A001B4B73B51A4005000C000340062B02
:101770000CD1062A04D1441A60426041C0B212E082
:10178000C00824F0D1F80600606805E04668062A23
:10179000FAD1C80824F0C8F8002E05D0002803D0DC
:1017A000B04201D0002076BD69462800FFF70AFC50
:1017B00001A905002000FFF705FC009A019B01002C
:1017C0009A42EFD1280027F0B8FA44426041D5E7A9
:1017D000070080FF084B07B50340062B08D083079E
:1017E00004D10268054B92699A4201D0FFF7FCFAD6
:1017F00001A9FFF7E7FB0EBD070080FF9D1D00005C
:101800000A4B13B503400C00062B08D0830704D104
:101810000268074B92699A4201D0FFF7E5FA01A9E5
:10182000FFF7D0FB019B236016BDC046070080FF79
:101830009D1D0000F0B59BB00B9005910892102102
:101840000EAA12A8099314F0DBFA059B089A93429A
:1018500008D30B9A12AB13CB13C21B6813600B98FF
:101860001BB0F0BD059B19785D1C7D290ED1089B2E
:10187000AB4208D9059B59787D2904D112A825F0DF
:1018800086FC059507E0BC480BF0A0FD7B2906D03F
:1018900012A825F07CFC059B01330593D5E7089B36
:1018A000AB4216D9059B59787B29E7D02B007D29BF
:1018B00003D0212901D03A290DD100252E001A7814
:1018C000212A11D0002206921AE0089A01339A4286
:1018D00001D1AA48D8E71A787D2A03D0212A01D05D
:1018E0003A2AF2D11E00EAE708995A1C91421CD903
:1018F0005A780692723A012A17D802339942E8D9E7
:1019000000211A7805913A2A1FD15A1C5B7805925A
:101910007D2B1DD1089B059A9342DAD90027059BA0
:101920001B787D2B17D09648AEE79648ACE7197820
:101930007B2905D10132013308998B42F7D3C8E7DF
:101940007D29F8D1013A002AF5D1059F0593E6E7F4
:10195000059B0122F0E7002D48D00023287816933C
:1019600006F086FE00283DD0099B1B680793002BDC
:1019700001DD854888E716AA3100280020F0BDFC6B
:10198000209A169B013A04009A4203D87F49804866
:1019900023F034F8219A01339B009D580122099BC2
:1019A00052421A60B44231D27A480BF001FF01343E
:1019B000B44204D223782E2B01D05B2BF7D1611BCC
:1019C00001222800FFF7C4FA002205000100229836
:1019D00007F0D2F8002807D129006F4821F0FFFB5B
:1019E0000AF07CFE2C00E3E74568DBE7099B1B68F7
:1019F000002B01DA694847E7209A013A9342C5D2A1
:101A0000013321999A005558099A1360002F00D08C
:101A1000A6E1069B3C00002B04D0069C733C631E91
:101A20009C41E4B210AA102116A814F0E9F929008B
:101A3000220010A800F052FF16A95948FFF752FAE9
:101A400001235B4205000D931093002F00D18FE01E
:101A50000EF096FF229B059A0293219B3900019379
:101A6000209B16A80093099BFFF7E4FE16A825F01B
:101A70007CFB0026179B0400C3180A930378069387
:101A8000B34208D0474F1900380027F0BDF9B042E3
:101A900000D16EE1013423782B2B4ED000272D2B63
:101AA00002D0202B01D1043701342378232B02D11B
:101AB000133B1F4301342378302B07D1069B002BA7
:101AC00001D13D330693002E00D130360DAA0A997C
:101AD000200020F012FC037807902C2B04D10C3B43
:101AE0001F43030001330793079B1B782E2B06D15E
:101AF000079810AA01300A9920F0FFFB0790079B76
:101B00001C78002C1BD02100274827F07DF90028E5
:101B100003D0079B5B78002B11D02448B4E631003A
:101B2000380027F071F9002804D033000234069EF3
:101B30000693B0E706900600ADE70227B4E716A8C3
:101B400025F0E7FA069B002B08D12800FFF728F9BB
:101B50003C230693002801D002330693002E00D1C7
:101B6000203606231F4229D0732C23D110488BE640
:101B70003C003E00E9E7C04691FD0200D2FD0200B4
:101B8000EAFD0200B9FD02000EFE020058FE02004E
:101B900044A9020071FE020080A902008EFE02002C
:101BA000CC990200D8FE0200DDFE0200EDFE02002C
:101BB00006FF0200632C01D1714865E6069B3D2BB0
:101BC0001FD05E2B1FD03C2B01D13B3B1F43280075
:101BD000FFF7CAF800282DD0632C50D026D8472C08
:101BE00013D8452C26D2002C40D0252C22D02800FA
:101BF00020F001FD220003006249634806F052FC18
:101C0000EEE64023E2E78023E0E7582C53D0622C35
:101C1000EDD1002303930D9B0222029361230196D1
:101C2000009729000EA813F0FFF834E6672C17D8A8
:101C3000652C1BD32800FFF7B3F800286CD0002CCC
:101C400056D06E2C54D0472C3FD8452C41D2252C51
:101C500050D0280020F0CFFC220003004B49CCE7F5
:101C60006F2C1AD0782C26D06E2CC0D10023039371
:101C70000D9B01960293009761230A22D1E7280069
:101C800000F0FCFE0D9B16A90870012201933B0099
:101C900000960EA813F06CF8FDE5FB0602D5802334
:101CA0009B001F43002303930D9B01960293009713
:101CB00061230822B5E70022230003920D9A173B07
:101CC0000292019600971022ABE72300653B022B9E
:101CD000BFD8280000F036FF109B220002930D9B16
:101CE000011C01933B0000960EA825F032F8D2E5C6
:101CF0006724EEE72800802400F024FF244918F030
:101D000055FE109B640002930D9B3C430193011C04
:101D1000009623006622E7E7069B3D2B01D11D4874
:101D2000B2E5002C01D0732C13D116A92800FFF7BF
:101D300067FD109B0100169A002B00DA1092109B91
:101D40009A4200D916930D9B00960193169A3B0078
:101D50009FE7280020F04FFC220003000E494CE7CB
:101D6000069B002B00D058E601235B420D93109395
:101D70006EE66678002E00D0D1E606968BE6C04669
:101D800032FF020065FF0200C8AC020096FF0200AD
:101D90000000C842CAFF0200FFFF0200F0B5A1B078
:101DA00005000C000D920A2800D0E4E10DAB0F9362
:101DB0000123073D1093059215403CD11368BF4A9B
:101DC000934206D10FAA10A9059821F010F80595A5
:101DD00002E0BB4A9342FAD1109B11A907930F9BD3
:101DE00020000893FFF7EEF8002309900A93A30759
:101DF00005D1B44A23689B1A5A425A410A9214AA3E
:101E0000102118A813F0FCFF119A00279446099B93
:101E1000099C63440493049BA3420FD8079BAA48E0
:101E2000BB4229D10A9BA948002B00D0A54818A97C
:101E3000FFF758F8BAE100230593CDE7217825296B
:101E400004D018A825F0A3F90134E4E7049B661C2C
:101E5000B34202D89E480BF0B9FA6178252904D123
:101E600018A825F094F93400EEE70025282915D1AB
:101E7000059BAB4202D197480BF06CFCA01C0600FE
:101E80003378292B23D1311A0122FFF761F80100A1
:101E900005980EF083F80127050001360023340071
:101EA00040220026302104200B9320330693049B0C
:101EB000A34213D800231293049BA34231D9237861
:101EC0002A2B70D1079BBB4221D88348D4E7049BBF
:101ED000B34201D88148BEE70136D1E723782D2BE4
:101EE00003D12C3B1E430134E1E72B2B01D1293BCD
:101EF000F8E7202B01D10643F5E7232B04D0302B44
:101F0000D8D116430691EEE710230B93EBE77B1C29
:101F10000C93089BBF00F85800F0B0FD0C9F129086
:101F2000013401235B421393049BA34292D923788B
:101F30002E2B17D1049B601C83428BD963782A2BEC
:101F400038D1079BBB42C0D97B1C0C93089BBF00B8
:101F5000F85800F093FD0C9F13900234049BA342A9
:101F600000D877E7002D06D1079BBB42ADD9089A70
:101F7000BB009D5801372278672A45D8652A00D3CF
:101F8000B8E0582A5DD01DD81300453B022B00D87D
:101F9000B0E0099B5249E41A00941300514806F03E
:101FA00081FA0AF09BFB200012AA049920F0A5F9FF
:101FB0000400B6E7002313AA0499139320F09DF9B7
:101FC0000400CBE7632A49D0642AE2D103222B0024
:101FD0001340022B0AD1444B2B40062B06D0FF2383
:101FE000DB05E81890430AF0CBF90500139B0A22A1
:101FF0000393129B00960293069B01936123290091
:1020000014A812F011FF1FE7732A16D8722A00D302
:1020100080E0692ADAD06F2ABBD10B9B002B02D05B
:1020200084239B001E43139B00960393129B08225C
:102030000293069B01936123E1E7752AC6D0782AB3
:10204000A7D11300139A173B0392129A0292069A91
:1020500001920B9A164300961022D0E7224B2B4098
:10206000062B05D0AB0716D1184B2A689A4212D11D
:102070001CA92800FFF7C4FB1C9A0100012A01D00B
:102080001A48F9E6129B019320230093330014A809
:1020900012F06EFED8E62800FEF766FE00280BD090
:1020A000280000F0EBFC129B1CA908700193202370
:1020B000012200933300EAE70D48DDE60CA00200A0
:1020C00034C20200609202005CFD0200CC99020062
:1020D00097FC0200A9FC0200D6FC0200C0FC020032
:1020E00027FD0200C8AC0200070080FFFDFC0200D3
:1020F00016FD0200280000F025FD139B22780293B4
:10210000129B011C0193069B14A80093330024F03A
:1021100020FE99E616AA10211CA813F071FE237860
:102120001A00723A51424A41D2B2722B09D00A9B2C
:10213000002B06D0AB0704D1594B2968994200D136
:102140000422290016A800F0C9FB139A1D9B002A3F
:1021500000DA1393139A9A4200D91A00129B1E991F
:102160000193202314A80093330012F001FE1CA851
:1021700024F0CFFF68E6080000F098FB16A90700DE
:102180002000FEF71FFF0590072D22D118A90D98FA
:1021900000F0B2FC03000020834207D0189981426E
:1021A00006DC404B40489F4200D10E2021B0F0BDDC
:1021B000169B1CA8594324F09BFF1E9B01210493EE
:1021C00000930598189B169A23F0F7FC1CA9380079
:1021D0002EE60D9800F06AFBB8420FD11CA90D98AD
:1021E000FEF7F0FE1C9E04901D2D17D8192D4ED21F
:1021F000052D21D0122D1FD00020D7E7284B0D9898
:102200009F4209D101221CA920F00CFA0028CDD050
:102210001C9B1D9E0493E7E7FEF7E6FD1F2DEBD107
:102220000123049A009316993300059820F07DF855
:1022300000282AD01D48B9E7169B002B07D10D981E
:1022400000F034FBB84202D10D9C2000AEE7002E16
:10225000FBD0169B1CA8F11824F04AFF1E9B169A6F
:1022600005991800069326F077FD169A1E9B944652
:102270000593634418003200049926F06DFD1CA9F3
:102280003800FEF72FFE0400DFE709488EE70096CE
:10229000049B169A0599280023F0C5FCC8E7C046A0
:1022A00060920200CC990200509202008CE702007A
:1022B00084E70200F0B5050087B008680C0000F064
:1022C000F5FA0090012D28D96668022D26D0A06865
:1022D00000F0D4FB05000021080024F0A5FB04A9B0
:1022E00001902068FEF76EFE049B0400C7183E4B69
:1022F0009E4241D1BC422AD2207806F0A1F90028A2
:102300000FD1002D0FD121003A1B009820F02CF89E
:102310000100019811F060FF19E0334E01256D4274
:10232000D9E70134E6E72600307806F089F900287D
:1023300002D10136B742F7D82100321B009820F0B5
:1023400013F80100019811F047FFB74209D801982E
:1023500007B0F0BD0136B74203D1002DF7DD013DD6
:1023600006E0307806F06CF90028F3D1002DF6DC99
:10237000BE42ECD23400C4E7300000F097FA009B74
:10238000984202D03000FEF72FFD05A93000FFF77C
:1023900037FA059B0390002B13D114480BF016F865
:1023A0003E002100321B00981FF0DEFF0100019863
:1023B00011F012FFBE42CAD2059BF418002D00DDB9
:1023C000013D2600059B0293002DE9D0029BF318E6
:1023D0009F42E5D3029A0399300026F0AEFC002814
:1023E000DFD00136F0E7C046A4B30200310003009D
:1023F000F0B507008BB00D00022807D8290038007F
:10240000FFF758FF050028000BB0F0BD086800F08A
:102410004DFA08A9049028686E68FEF7D3FD019074
:10242000A86800F02BFB041EE8DB431C1800002109
:10243000059324F0F9FA2F4B05009E4202D12E4855
:102440000BF0B6F909A93000FFF7DAF9099B0690FD
:10245000002B02D129480AF0B9FF089A019B944643
:1024600063440293A3000393099F029BDE1B002C8D
:102470000BD0019BB34208D83A000699300026F0F1
:102480005CFC002821D0013EF1E7EB68A6009F1913
:10249000019A029B01999A1A04981FF065FF38600F
:1024A000002CB0D0059B1C1BEB68A70099193A00C3
:1024B000180026F05AFC6B6800211A1BEB6892008A
:1024C000D81926F065FCAC609DE7039AEB6894464A
:1024D00063440793029BF1199A1BD21B04981FF0C7
:1024E00043FF079B013C1860039B0296043B039348
:1024F000BAE7C046A4B30200C800030031000300DD
:1025000070B50C008AB0050004A920681600FEF71B
:1025100059FD00230593049B0100C218029605ABE8
:1025200006A801940095FFF785F906A90248FEF771
:10253000D9FC0AB070BDC046CC99020010B50400A9
:10254000002906D0044B8A6B03600968002306F05B
:1025500015F820000AF0C2F8D8AB0200F0B504006C
:1025600087B0039202936618002A06D0023A222A04
:1025700003D935480AF02AFF0134B44229D2207821
:1025800006F05EF8071EF7D123782B2B1CD10134FF
:10259000311B200003AA20F0F8F923181C000025A5
:1025A0000193B44217D3002F00D06D4201236D0078
:1025B0001D43019B9C422FD12449039A244805F0D6
:1025C00071FF0299FFF7BAFF2D2BE1D101340127EA
:1025D000DEE70027DCE723781A00303A0092092A68
:1025E00007D9202213431A00613A192ADBD8573B36
:1025F00000930399009B9942D5D9280005F004FC6B
:10260000002816D1039B5D43009BED186B006B40C7
:102610000FD40134C5E70134B44205D2207806F066
:102620000FF80028F7D1C7E7B442C5D1280007B09A
:10263000F0BD019B3A000593F11A05A8039B23F016
:1026400049F8059C0500B4E71501030038010300B3
:10265000C8AC0200F0B504008BB008934318049294
:102660000193019B9C4200D3F6E0207805F0E8FF3F
:10267000071E38D123782B2B37D101340590019BCD
:102680009C4200D3EAE0202322781A43692A33D1FE
:102690000199A21C914200D8E6E062781A436E2AA2
:1026A00000D0E1E0A2781A43662A00D0DCE0E21D07
:1026B000E51C914214D9E2781A43692A10D1227993
:1026C0001A436E2A0CD162791A43692A08D1A27979
:1026D0001A43742A04D1E2791343792B00D10535CA
:1026E000FF26F6051BE00134BBE705902D2BCAD170
:1026F0002C3B01340593C2E76E2A2ED10199A21C0E
:10270000914200D8B0E062781A43612A00D0ABE071
:10271000A27813436E2B00D0A6E05D4EE51C059B0E
:10272000002B02D080231B06F618A5427BD1594905
:102730008CE03D002B786F1C18003038092834D805
:10274000022E15D10A23029A53431B180293019BB0
:10275000BB42EED8002304934DE000220792029280
:102760004D4A250006920022002603920993E1E7D4
:1027700018F092FC051C012E0DD1069918F016F9DF
:10278000011C039817F0A0FD43490390069818F028
:102790000DF90690DBE74149039818F007F9291C69
:1027A00017F092FD00260390D1E7002E03D12E2BC7
:1027B00003D10126CBE7022E16D0099A1A43652AC7
:1027C00012D1019BBB4256D96B782B2B05D1AF1C84
:1027D000019B9F42ABD00226B9E702262D2BA8D140
:1027E0002C3BAF190793F3E7049A002A04D0202268
:1027F00013436A2B13D13D00079B002B02D0029B91
:102800005B420293029818F0FDFB011C23481BF069
:10281000B9F8039918F0CAF8049F061C7FE7002353
:102820000493E9E70135019B9D4205D2287805F024
:1028300007FF0028F6D17AE7019B9D4200D076E79A
:10284000089B002B01D1002F1AD01549154820F004
:10285000CDFC1099FFF772FE00230593002303932C
:10286000002325000493CCE7059B002B00D15EE7F5
:102870002500002656E7019BBB4200D157E769E7D8
:10288000032302209E43084B3043C0180BB0F0BD19
:102890000000C07FFB000300CDCCCC3D00002041F8
:1028A000DE000300C8AC020000008080074BC207B6
:1028B0000AD4074A074B0240062A05D00322064BDA
:1028C0000240022A00D0036818007047ECB80200EA
:1028D000070080FFCC99020048B0020070B50D00DF
:1028E000040016000EF04CF82800FFF7DFFF8368A5
:1028F000002B04D0320029002000984770BD4268A8
:102900000249200024F06AFAF8E7C046A402030056
:1029100010B50A0001000248FFF7E0FF10BDC046F5
:1029200044E80200F7B5050008000E0020F062FC44
:10293000002810D001AA6946300005F053FE009B24
:10294000002B08D01749280024F087F9009CE71EC7
:10295000A400002F09DA310028000222FFF7BEFF91
:102960002800114924F079F9F7BD019B28001A19B4
:1029700011000C3A08390B6812680C4924F02EFA41
:10298000019B1B19043B1A68002A06D1064928003E
:1029900024F063F9033F0C3CDBE70549280024F0F1
:1029A0001DFAF7E762020300254F030086020300C9
:1029B0009B02030010B50400FFF778FF054B006988
:1029C000984203D0431E9841C0B210BD200021F0B0
:1029D0004BFFFAE7F5BA000070B505000C000120C6
:1029E0008D4203D0214B9D4201D1002070BD994200
:1029F000FBD001231D4204D01942F6D12B000D005B
:102A00001C002A001A4B1A40062A05D0AA0711D129
:102A1000184A296891420DD12340062B05D0A307FF
:102A2000E3D1144B22689A42DFD121002800FEF73F
:102A300097FEDBE72340062BD7D0A30703D10D4B2E
:102A400022689A42D1D02800FFF730FF8369002B1B
:102A5000CBD0220029001B2098470028C5D0064B68
:102A6000C01A43425841C0B2C0E7C046A4B30200F6
:102A7000070080FFCC9902008CE70200104B10B5D4
:102A8000984219D00F4A0123904217D0184201D022
:102A9000184110BD830706D10B4B02689A4202D140
:102AA0000CF036FFF5E71FF0A6FD084902000848C4
:102AB00005F0F8FC09F012FE0020EAE71800E8E74C
:102AC00084E702008CE70200ECB802002902030050
:102AD00050AC020010B5C30705D4830706D1054BDF
:102AE00002689A4202D122F00CFE10BDFFF7C6FF29
:102AF000FBE7C046ECB802000F4B70B50D00012497
:102B0000984204D100230B602300180070BD0B4BCA
:102B1000984201D10C60F7E70300234002D0401037
:102B20002860F1E78207F0D1054A01689142ECD1B3
:102B30000CF0EEFEF4E7C04684E702008CE70200EA
:102B4000ECB80200184B10B5984228D0174B9842A9
:102B500027D0C30703D5401018F054FA10BD032343
:102B6000184206D1124A0168914202D122F0D2FDE8
:102B7000F4E702001A40022A08D10E4A0240062A4F
:102B800004D0FF22D20580189843E7E71FF033FDF9
:102B900009490200094805F085FC09F09FFD002065
:102BA000DCE7FE208005D9E784E702008CE702001D
:102BB000ECB80200070080FF0F02030050AC0200D7
:102BC00010B583070CD103680A4CA34202D120F050
:102BD0000EF910BD084CA34202D123F03CFFF8E7E8
:102BE0001FF009FD05490200054805F05BFC09F0EE
:102BF00075FDC0460CA0020048E70200BF010300BB
:102C000050AC020013B50C0001A9FFF7D9FF019BDE
:102C1000A34206D022000349034805F043FC09F013
:102C20005DFD13BDE2010300C8AC0200F7B505006D
:102C30000C0017001E00D3070ED557100197019BFB
:102C4000002B1FDA1B190193002E1DD0002B15DA63
:102C5000002301930198FEBD01A91000FFF74CFF6E
:102C60000028ECD138006C681FF0C5FC220003007E
:102C70000B490C4805F016FC09F030FDA342E9D9D8
:102C80000194E7E7002EF9D1019B002B01DBA34261
:102C9000E0D36A680449054805F004FCECE7C04647
:102CA0008501030050AC0200A901030044A9020001
:102CB00010B50400830710D10D4B02689A420CD165
:102CC0000C4B0340062B06D1C00822F032FE430015
:102CD0000120184310BD8068F9E72000FFF7E6FDEA
:102CE0004369181EF6D0210001209847F2E7C0463C
:102CF00060920200070080FF164B70B504000020B0
:102D00009C4203D0144DAC4201D1012070BD134B45
:102D100000209C42FAD001262640864203D0601053
:102D2000431E98410DE02000FFF7C0FD4369002BD2
:102D300009D0210030009847002804D0401B4342AE
:102D40005841C0B2E2E72000FFF7B2FF0028DCD014
:102D50000138E5E784E702008CE70200A4B3020033
:102D600010B50400FFF7A4FF002809D120001FF0D0
:102D700042FC04490200044805F094FB09F0AEFC53
:102D800010BDC0464102030050AC020070B5040003
:102D90000D001600FFF78AFD036A002B05D03200F4
:102DA000290020009847002818D10D4D2000002E42
:102DB00008D11FF020FC02000A49280005F072FB30
:102DC00009F08CFC042E04D11FF015FC064902000A
:102DD000F3E71FF010FC05490200EEE770BDC046A6
:102DE00050AC0200A9020300D4020300F502030064
:102DF00010B51FF017FC002802D102480AF0AAFC07
:102E000010BDC0466001030070B5050000291CDB41
:102E1000032905D80800002416F05AFF18180606E2
:102E20000123023999430C00FE26B52109023143E2
:102E300028001FF011FC002C04D005492800214374
:102E40001FF00AFCAE61EC6170BD0024F226ECE7D5
:102E500080B0000010B50D4C206824F036FC00282E
:102E600007D00B4B1B78002B03D1206803685B68ED
:102E700098470023074A1370074A13700BF030FC81
:102E80000CF05CFA0EF038F810BDC0465C2900204A
:102E9000CB2D0020CA2D0020392E002070B5050052
:102EA00094B0002804D13F481DF0B8FD14B070BDA7
:102EB00008A809F0EDFB041E19D12E68290004A80A
:102EC00001220EF0C7FE23002200310004A808F002
:102ED00099F90400032001F0A1F8200021F043FD3E
:102EE0000120404201F09AF809F0F0FBDEE70120F2
:102EF000404201F093F809992B48FFF713FD099818
:102F0000FFF7D4FC2949040008F0E6FE0028CDD1E3
:102F10002749200008F0E0FE0028C7D1099C01AA3B
:102F20006946200005F05EFB02AA322104A812F0D7
:102F300067FF009B022B05D9019B1E495A6802A816
:102F400023F04CFF2000FFF7B1FC1B4BC2689A42F4
:102F500010D1236819495A6802A823F03FFFE3689B
:102F6000002B07D05A68002A04D00022996802A8D2
:102F7000FFF7B4FC032001F051F804A824F0F5F8A1
:102F800006F034FC04A824F0C4F80120404201F00B
:102F900045F80B4B9A6C002A00D187E700229A640F
:102FA00084E7C0465803030044E8020014AC020062
:102FB000BCA9020085030300658300008E030300A3
:102FC0007C2E0020F8B54E4C1321200025F0A1FCEA
:102FD0002000032125F033FD4A4C01234A4A1321E6
:102FE000200015F0FBFF01220221200016F026F838
:102FF000464C200013F0EAF9454F3860200013F0EA
:10300000F3FB444D2860102025F03CFE04002968A5
:103010000025414E3A68330013F026FF3F4B1C60F9
:103020003F480DF08DFCE120C0000DF099FC3D49BA
:103030003D480AF07FFE09F071FB06F053FB01F0FA
:10304000A5FE13F031F8300024F086FF22F02EFAAE
:1030500000F064F904F0E0F901F07EFC0AF0D4FC21
:10306000324C3348230088331D600BF0ADFB0BF06E
:1030700089FB0AF0DBFC2F4F3B78012B0ED100239C
:1030800007211A002C4800F051FA031E1DD0010040
:10309000F720400000F0D2FBFFF700FF3B78002B49
:1030A0002AD112F0ABF90028F8D0244820F0E8FA31
:1030B0000BF078FB08220021214825F069FE23004F
:1030C00098348C331D602560AAE7F82292021178AB
:1030D0004D2909D15178502906D1F7205288194934
:1030E000400022F043FDD7E70122174917200AF0DC
:1030F000A5F821F062FCD1E712F0D0F9D3E7C04681
:103100003C29002054290020DF270200DC29002070
:10311000582900205C290020642900206029002013
:10312000004000203C2900203C0100207C2E002093
:10313000552E0000EA000020920303009A030300CA
:10314000FC2E002004E0030004A0020010B5084C8F
:10315000084A0621200013F059FF074A07492000BA
:1031600025F089FD00221E21054824F0FFFE10BD38
:10317000642900204C94020000000020C56F01006B
:10318000DC29002070B505000C200C0023F075F838
:10319000024B45600360846070BDC04664940200C9
:1031A00010B524F07FF8014810BDC046A4B302005A
:1031B00010B5C30708D483070ED10368094A9342A8
:1031C00002D0094A934207D1FFF758FC002801DDDD
:1031D00020F063FA054810BDFFF7B4FC17F0F2FECB
:1031E000F4E7C046ECB8020094E70200A4B3020082
:1031F00001220B4B10B51A600A4A51680029FCD015
:1032000000215160A1220131D2009A585960032354
:10321000D01718408018801022F036FA10BDC04632
:1032200000C00040FCC0004010B5002804D1044894
:1032300012F05CFE034810BD0868FFF71FFCF7E7BB
:10324000E7030000A4B3020080235B051869034B69
:103250001B7843438020C002C01A7047C72D00204E
:1032600080235B051869034B1B7843438020C00211
:10327000C01A7047C82D002070B5084DC4012B68D6
:103280000021181921F0C7FB2868054B00197F3071
:1032900000781B788342F0D270BDC046F42900202C
:1032A000C62D002010B5C3790400002B08D0064AB3
:1032B000037981791068DB01C018013021F0ABFB84
:1032C0000023237210BDC046F429002010B5124B14
:1032D00001001A684379DB01D31818007F300478A5
:1032E000FF2C08D10879C00112185278FF2A0FD09C
:1032F000887990420CD08A799B180132D2B25878E2
:103300007E2A01D08A7110BD00234C718B71FAE7BF
:1033100001204042F7E7C046F429002070B5F824A8
:103320008025A40223786D054D2B4CD12B6980207C
:10333000E41A2B69C002E41A2969001B16F0DCFCB0
:103340002B4B2C4918702B69E21852185D4215401E
:10335000294B2A4A9B1A2A4A9B1880225205116936
:103360009D4234D38020C002401B16F0C5FC254B83
:10337000641B1870E411244BE4B21C70A1200123DB
:103380000025224A22491360C0004D604B68002B83
:10339000FCD01358DBB2A342F7D21E4901330B70A5
:1033A00001235360FFF750FF037805001A4CFD2BF3
:1033B0000FD180235B051869184BC009C018C001E4
:1033C0002818206070BD80242B69E402AFE76D18D7
:1033D000C5E7FFF745FF0378803DFD2B01D1256050
:1033E000F0E7FFF73DFFFD2121F015FBF7E7C046B1
:1033F000C82D0020FF87FFFF1401002000000020DF
:1034000064870300C72D0020C62D002000D0004097
:10341000FCD00040C92D0020F4290020FFFFFF014F
:10342000F7B5254B254F1A78254B14001B783968C2
:103430000133E001405CFF2829D00134E4B29C4212
:1034400000D101249442F4D1802300265B051B693E
:10345000DB090193E30100933B68E2019D182B789F
:1034600028005A425341F61821F0EBFA002810D0F8
:10347000002304E0DA01AA5C002A0AD10133019A90
:103480009342F7D13868009BC01821F0D0FA200091
:10349000FEBD0B4B01341B78E4B201339C4200D1DA
:1034A0000124054B1B78A342D4D1072E02D91FF06B
:1034B000F0F9B6E7FF24EAE7C92D0020F42900203F
:1034C000C62D0020F7B507000D0001240E4B1B7818
:1034D00001930E4B1E68019BA34202D2FF242000E1
:1034E000FEBDE10171180B78FE2B09D18B78AB4240
:1034F00006D103312A00380025F01FFC0028EED049
:103500000134E4B2E7E7C046C62D0020F4290020CC
:1035100010B5054A03791068DB01C01881780022D4
:103520000330FDF715FD10BDF4290020F0B585B07E
:1035300002900D0016000393782948D8FFF7C2FFC8
:103540000400002E3BD0FF2801D0FFF795FEFFF7C7
:1035500067FF0400FF2803D11E491F4821F04EFADF
:103560001E4FC0013B680190FE21181821F053FA4C
:103570003B68019AE9B29818023021F04CFA386899
:10358000019B2A00C018033002990BF037FA0C2077
:1035900022F073FE039A0300002A16D0104A1A6024
:1035A0000E4A1C7112685C71E4011419A278DE7174
:1035B00002329A7101221A72039A5A7202E033009F
:1035C000FF28E4D1180005B0F0BD064AE7E7002364
:1035D000F8E7C046A8030300E8AA0200F429002087
:1035E000ACBA020058BB020007B501A9FEF708F902
:1035F0000199FFF767FFFF2803D10449044821F030
:10360000FDF9FFF739FE03480EBDC046DB0303009A
:10361000E8AA0200A4B30200F7B50192027A0400FE
:103620000091002A02D1244809F0D0FEC579002D6E
:1036300006D1224A17680279D201D25D002A05D14B
:10364000092201251A606D422800FEBD61797E22A3
:10365000C901791808007F30A3790078D21AFF28B1
:1036600009D12079C00138184078FF2819D0C01A34
:10367000824200D902000198461B964200D91600EA
:10368000002EE1D0009A01335019C918320025F0FC
:1036900063FBA3799B19DBB27E2B04D0A371AD1918
:1036A000D4E70022E7E70023A3716379DB01FB186D
:1036B0007F331B786371F2E7BE030300F429002017
:1036C000F0B585B00393037A040002910192002BB8
:1036D00002D1304809F07AFEC379002B08D02E4A77
:1036E00003791268DB019B5C019A0092002B25D1C3
:1036F0000923039A13600A3B0193019805B0F0BDBA
:103700007E22A379D71A009A974200D917006079D0
:10371000214E0133C001C01833683A0018180299CD
:103720000BF06CF9A379DB19DBB27E2B0AD0A37105
:10373000029BDB190293009BDB1B0093009B002B79
:10374000DED1DAE70023A371FFF76AFE0500FF2848
:1037500009D12079FFF790FD002323721C23039ADF
:1037600013601D3BC8E760793368C0011818290051
:103770007F3021F050F93368ED015819617921F05B
:103780004AF962793368D2019B187F331B786371E1
:10379000CEE7C046BE030300F4290020002170B527
:1037A000080023F041F9012405000C4B1B78A342CB
:1037B00001D2280070BD0A4AE3011068C0180378DE
:1037C000FE2B08D1817800220330FDF7C1FB0100F8
:1037D000280010F001FD0134E4B2E6E7C62D002018
:1037E000F429002073B501A9FEF70AF80199FFF743
:1037F00069FEFF2803D10E490E4821F0FFF800258D
:103800007E260D4B1C68C301E31859789B78023360
:10381000DBB2C201A2187F321078FF2804D1C81A87
:10382000401921F031FF76BDF31AED180023F0E7BF
:10383000DB030300E8AA0200F42900201FB5034AB5
:10384000034B22F056F905B000BDC046CD32000052
:10385000A5320000044B054A05481A60054A5A6023
:1038600000221A817047C046FC290020200307006F
:10387000A4B3020074696275F7B51600314A0B00F3
:1038800088321768002F02D12F4809F09FFD0221CE
:103890002E4C2F4DE167A324E4002C592D4AE4B2AD
:1038A00006343C192C4F3D68A54204D12B4B1160C6
:1038B00001930198FEBD2578002832D1601C002BB1
:1038C00004D12900FDF75CFB01900BE05A68AA4285
:1038D00000D92A000100186825F047FA01226B0080
:1038E0001A430192002E0ED0621953785B42336066
:1038F000D37811791B0209040B43917852790B4359
:103900001206134373603E68A91D6118721A2000E5
:1039100025F02BFA0223751B0E4A063D3D6013600D
:10392000C7E7022D04D8002303600E330193D9E7C3
:103930002100042225F010FAE91E201D0022FDF7C7
:1039400007FBC1E77C2E00206C04030004E100E0CB
:103950000010004000E100E0082A0020A4B30200AB
:103960007FB5002101AA0800FFF786FF0A4B9842A5
:103970000FD00121019B03905A00029B0A438B4008
:103980000492064A032013400B4303A9059302F057
:1039900071FE07B000BDC046A4B30200FEFFFF7F6A
:1039A000002213B501AC11002000FFF765FF094BA1
:1039B00098420ED02378022B08D96378012B05D1C9
:1039C000A378002B02D1E378012B02D0024809F042
:1039D000FDFC16BDA4B302004C04030002220B4BF5
:1039E00010B5DA6700220121094B5A61094A1161B9
:1039F0005A69002AFCD0084C88342068002803D07B
:103A000022F06AFC0023236010BDC04604E100E000
:103A1000FC100040001000407C2E002010B5FFF785
:103A2000DDFF014810BDC046A4B30200F8B5FFF7A2
:103A3000D5FF364C26786578063601357543280063
:103A400022F01BFC324A861916600022314B4519C0
:103A500088331860304B01211D60304B5A60802242
:103A6000D20511605A68002AFCD003212C4B615604
:103A70002C4A00259950A178043A9950617A08326D
:103A800099506168284A08269950217A274A284F78
:103A900099500121274A9D5004329950264A9E5040
:103AA0008122247892042243A324E4001A510224A0
:103AB000224A9C50224A9F50224F043A9F50182776
:103AC000214A9F50214AC0279850C12292009E50FF
:103AD0001F4ABF00D0591F4E0640C020000230438D
:103AE000D051C020400014501460102280301C5867
:103AF00022431A50184A5560596051680029FCD079
:103B00000021116101229A60F8BDC046FC29002005
:103B1000082A00207C2E0020F8290020FC0000400C
:103B2000001000400C0500001C05000024050000EA
:103B3000FFFF00002C050000140500003405000004
:103B40003C050000211001005405000004050000A0
:103B500000E100E0FF00FFFFFC10004010B5FFF7A0
:103B600065FF014810BDC046A4B30200F0B50500D2
:103B70008DB01600002802D0694809F0EBFD694BB2
:103B800009AA190091C991C21A781F7A06925A7827
:103B900005929A78039203229A5604925A685B7AA5
:103BA000019202937368AB424CD9EB000793B36860
:103BB000EA009B181A68002A1BD0042A19D05868FA
:103BC000FEF788FFB368EA0004009858FDF7E2F9B1
:103BD0000200B338FF3806282ED816F079F8040C06
:103BE000131920262800631EFA2B00D995E0E3B2B2
:103BF00006930135D6E7631EFD2B00D98DE0E3B2B5
:103C00000593F6E7532C00D987E0E3B20393F0E77E
:103C1000072C00D981E0444B1B570493E9E7022CA1
:103C200000D97AE0E3B20293E3E70194E1E7FF2CE5
:103C300000D972E0E7B2DCE73C493D4804F032FCD1
:103C400008F04CFD3B4B09AC88331B68002B12D1AC
:103C5000069B27722370059B6370039BA370049BD4
:103C6000E370019B0A93029B63722E4B07CC07C340
:103C700031480DB0F0BD069B2A4D2370059B637043
:103C800022882B889A420FD0FFF7A8FE039B277249
:103C9000A370049BE370019B0A93029B63720ECC9A
:103CA0000EC5FFF7C3FEE3E70222244B2449DA677F
:103CB0000022244B4A6101321A614A69002AFCD071
:103CC000039809AA907004981772D07001980A900E
:103CD00002985072134870CA70C01B4A04989850DA
:103CE0000398043A98500298083298500198174A5D
:103CF0009850174A9F5000224A6001325A604A6821
:103D0000002AFCD000220A61C02101329A60114BC6
:103D1000013249005A501A60AAE70F498DE7C046A0
:103D2000F6030300FC290020EE0303001104030046
:103D3000C8AC02007C2E0020A4B3020004E100E025
:103D4000FC100040001000400C0500001C050000A5
:103D50002405000000E100E027040300214BF7B533
:103D60005A68214D002A03D000225A600132AA600D
:103D70001A69002A34D000221A61A323DB00E85814
:103D80001A4BC2B2883319680C78A24201D21400CF
:103D900008708023DB00EB58012B1FD1144E154A0D
:103DA0003768A31D12680193FB189A4216D3621C50
:103DB000380024F0D1FFA923DB00EB58621CBB5470
:103DC00015F0DAFE3368020A1C19E270020C227147
:103DD000019AA0709B18000E607133600123AB60E4
:103DE000F7BDC046FC100040001000407C2E0020B3
:103DF000082A0020F8290020F7B5314F00933B0036
:103E0000883301921A680E00002A02D12D4809F069
:103E1000DDFA02212C4B2D4CD96700232C4D636118
:103E200001332B616369002BFCD0A323DB00EB582B
:103E30000099DBB27118994203D9B3423DD39B1B61
:103E40000093009B8837F31813703B68010001331F
:103E50001800320024F080FF009B002B06D0386849
:103E6000013680191A00019924F076FF002363605F
:103E700001332B606368002BFCD00123AB6000236F
:103E800023612369002BFCD00023636101332B6184
:103E90006369002BFCD00023636001336B606368AF
:103EA000002BFCD00023C021022223610133AB6030
:103EB000084B49005A501A60F7BD1E000023BFE7A7
:103EC0007C2E00206C04030004E100E0FC100040A4
:103ED0000010004000E100E007B501A9FDF790FCEB
:103EE000019B020003210248FFF786FF01480EBD37
:103EF000EA030300A4B302001FB5012201A9FEF7E3
:103F000077FF002301981A000299FFF775FF014817
:103F100005B000BDA4B30200030010B50548002B96
:103F200003D11FF056F908F0D9FB09681FF057F9C3
:103F3000F9E7C04614AC020010B503480968FEF763
:103F4000F1FC024810BDC04644E80200A4B30200E0
:103F5000F0B5802787B02B4D02907F422C78002C43
:103F60001CD063B2002B12DA6E787C40E4B2002ED3
:103F700014D0013CE4B2FF2C02D101350135EDE74C
:103F800004AB981D0121067005F0F2FBF1E704ABCC
:103F9000D81D0121047005F0EBFBEFE7052702981F
:103FA0001FF07BFB0124BC4227DA0025164E2200BD
:103FB000290030000BF0A2FB6B4601901B79002B0F
:103FC00015D0631E1A002900300003930BF096FBF6
:103FD000031E0CD12200290030000BF05BFBFF22F6
:103FE000019B290013403000621E0BF053FB01358A
:103FF000052DDBD10134E4B2D5E7013F002FCED14E
:1040000007B0F0BD870403001C00002010B5C820D5
:10401000FFF79EFF004810BDA4B3020010B50400D6
:10402000431C02D0024804F09BFA024B1C6010BDF6
:10403000A42E0020782E0020014B024A9A6470477B
:104040007C2E0020A42E002030B507240278084DD5
:10405000A24314000222224302707F22039C41608B
:104060002240D400028883602A402243028030BD6F
:1040700007FCFFFF10B50B00072401782340A14384
:1040800019437F23017004990A4C0B40D90003881F
:10409000426023400B430380039B04685905064B91
:1040A000C90A23400B430360029B8360059BC360E6
:1040B00010BDC04607FCFFFFFF03E0FF70B513789B
:1040C00004000A3BD8B20F2809D90A001048114948
:1040D00004F0E8F90025636A1860280070BD002527
:1040E00052781B021A43E36AAB420AD1238C0025A3
:1040F000042BF2D10849064804F0D4F9636A186029
:10410000EBE7206BA90009589142E6D00135EBE7B7
:10411000D8AB0200A8060300BD060300F0B50400FA
:1041200085B00D00100003A9A26A1E0021F022FF35
:10413000002809D12A000B490B4804F0B3F9636A3F
:104140001860002005B0F0BD0398FEF7C3FC030023
:10415000B343F7D0030000962A000449024804F054
:10416000A1F9ECE764060300D8AB02007C0603006B
:10417000F7B51F0013780E000A3BD9B2050021489D
:104180000F2904D850781B02184321F0D7FB1524BF
:104190000378009315231C491B1B0193A300CB1A22
:1041A000190055310978009A91421FD119005631F2
:1041B000427809788A4219D1573381781B788B422B
:1041C00014D1002B0FD1019B9A000F4BD05CB84249
:1041D00008D93B0032000D490D4804F063F96B6AC1
:1041E00018600020FEBDC378002BECD0013C002CF1
:1041F000D0D132000749064804F054F96B6A1860C0
:104200002000EFE7FB82030020070300D406030031
:10421000D8AB0200ED060300F0B5137885B00500B9
:104220000E00462B47D101A9100021F0D3FE019BBF
:10423000834240D003781A000A3A0F2A0AD80200B3
:104240000F2331002800FFF793FF01248440200052
:1042500005B0F0BDB32B2ED121F0B7FE040021F044
:10426000AFFE02900378B62B25D10127A73B220091
:1042700031002800FFF77CFF3C0003A9844002982E
:1042800021F0A8FE039B02909842E0D09D2102A855
:1042900021F0AFFE029A039B9A42D8D00F2331003F
:1042A0002800FFF765FF3B00834002981C4321F084
:1042B00087FE0290EEE732000349044804F0F2F86A
:1042C0006B6A00241860C2E705070300D8AB020040
:1042D000F0B50E0087B0040004A930001F00019261
:1042E00021F031FB019B0500002B0FD1A4239B0083
:1042F0009E4205D1BF21090220001EF0ADF919E050
:10430000BE4B9E4200D088E0BD49F5E7019B012BE2
:1043100000D09AE00A23FF339E420DD101003A6893
:104320002000FFF7CBFE010020001EF0DFF900287F
:1043300000D116E207B0F0BDB24B9E4209D1010098
:104340003A682000FFF7BAFE010020001EF026FAAE
:10435000EDE7AD4B9E420AD101000F233A682000E1
:10436000FFF706FF8E21C000C9010143C4E70378AF
:10437000622B3BD1049B032B07D0052B36D1C3788E
:104380005F2B33D103796E2B30D101230E265B4294
:1043900069789E480293B300F31AC3181A002B32AF
:1043A00012788A4209D1AA7894461A002C321278DF
:1043B000944502D12A331B780293013E002EEAD1A4
:1043C000029B013329D03A6829002000FFF776FECE
:1043D000049B0200052B03D12E79773E73425E4188
:1043E0003300029920001EF09DF9A0E7884B9E4201
:1043F00001D1884980E7884B9E4201D187497BE7FC
:10440000874B9E4212D129003A682000FFF704FF33
:10441000FF231B02B421184215D0019B2A008149B9
:10442000814804F03FF8636A186083E77F4B9E423F
:10443000F3D13A6829002000FFF7EEFEFF231B02AC
:104440001842EAD1BC2109028FE7019B022B00D060
:1044500021E17B68764A1B780A3B0F2B48D89642AD
:1044600012D13A6801000F232000FFF781FE7A681D
:10447000060029000F232000FFF77AFE310002001A
:1044800020001EF01CF955E700226A4B02929E4262
:104490001AD18026F6013A68290007232000FFF789
:1044A00067FE7A680190290007232000FFF760FE6D
:1044B000019A0300310020001EF0FAF83AE7029B4F
:1044C000013302930F2BA8D0029B03229E005A4B6C
:1044D0002800991924F0B7FC0028F0D1EB78002BC4
:1044E000EDD1564BF65C80233601DB011E43D2E74B
:1044F00096421AD1802607233A6829002000FFF748
:1045000037FEFF23019029007A682000FFF706FE9E
:104510000100019BB6011B0231431943ECE6A026C2
:10452000E9E7C026E7E7E026E5E787239B009E4210
:10453000F5D01E3B9E42F4D0414B9E42F3D0414BFE
:104540009E4251D0404B9E4250D0404B9E424FD055
:104550004F339E424ED03E4B9E424DD03D4B9E42ED
:1045600000D05AE705233C4A9B009B5A290002933E
:104570003A6807232000FFF7FBFD7E68039033783D
:10458000452B6BD1300021F060FD002866D1300052
:1045900021F01BFD0378A62B60D105A921F01AFD9F
:1045A0000599060021F000FD022857D1300021F0C6
:1045B00007FD07233200070029002000FFF7D8FD80
:1045C000029B0600DB0451D51F233A00290020007E
:1045D000FFF7A4FDF100039B029E80011E433143BF
:1045E000F826F6003040C0E60023BCE70123BAE716
:1045F000019BB8E70323B6E70423B4E7E602000013
:1046000030BF00000B0200000F0200002505030070
:104610002202000072B600002302000062B6000011
:104620009F020000DF050300D8AB02009A020000E1
:104630008902000001020000290603002806030089
:10464000C50200006E0200006F020000710200004F
:10465000C1020000C302000058F602002A004449CB
:10466000444803F01FFF636A1860D6E66B460822D1
:104670009B5E002B07DA3E233A0029002000FFF75B
:104680004DFD4008A6E77C233A0029002000FFF7F3
:1046900045FD80089EE7019B032B00D0BDE69E23CD
:1046A0009B009E4222D100263A6807232900200061
:1046B000FFF75EFD7A680190072329002000FFF7CD
:1046C00057FD1F230290BA6829002000FFF726FD3E
:1046D000019F029B374381013943DE0031430BE6E2
:1046E00080263601E0E780267601DDE7224B9E42F8
:1046F000F6D0224B9E42F6D0093B9E422BD1C026DB
:1047000007233A6829002000FFF732FD07230190B4
:104710007A6829002000FFF72BFDBA68760113782C
:1047200002900A3B0F2B0DD8072329002000FFF72A
:104730001FFD029BD900019B194331430F008101EA
:104740003943D9E58023DB001E43290007232000DD
:10475000FFF7E4FCEDE70A4B9E4200D05DE6D02671
:10476000CEE708490348646A1EF040FD2060E1E599
:10477000B4050300D8AB0200790200000702000074
:10478000C502000014060300F7B50E000700110073
:10479000300021F009FC0025040004281ED97C6AA1
:1047A000134914481EF022FD206000242000FEBDA5
:1047B00073780002184321F0C1F80236019024F00A
:1047C0003BFB022811D1019B1B78722B0DD1019B61
:1047D0005A782B0030339A4207D10135A542E5D0F3
:1047E00030780A38C3B20F2BE2D97C6A0249D8E785
:1047F0004F050300D8AB020082050300054B10B53E
:10480000186822F05EFF044B002800D1034B18000B
:1048100010BDC0465C2900208CE7020084E702003E
:1048200010B5034B186822F054FF024810BDC04673
:104830005C290020A4B3020010B5034B186822F0D5
:10484000B6FF20F021FF10BD5C29002010B5034BFE
:10485000186822F0B3FF20F017FF10BD5C2900207C
:1048600010B5034B186822F0B0FF20F00DFF10BD0B
:104870005C29002010B5034B186822F05BFF20F084
:1048800003FF10BD5C29002030B593B009F08AFF0A
:10489000184C200023F05BFB174D286812F04CF8F1
:1048A000200023F059FB09F06DFF20F0FFFD1EF002
:1048B00072F90400296803A822F0F9FE0F4B2000CA
:1048C0000A93039B0B93049B0C93059B0D93069BF0
:1048D0000E93079B0F93089B1093099B01931193D1
:1048E00020F0A5F8200020220AA90AF087F8044841
:1048F00013B030BD642900205C29002055BA11C0D6
:10490000A4B30200F8B5114D0400286822F0D9FEC6
:10491000002802D12000FFF7B7FF0D4B1B78002BBA
:104920000DD10C4E3478E4B2002C08D10127286850
:10493000377003685B689847054B34701F702868B0
:1049400012F0D6F820F0A0FEF8BDC0465C29002089
:10495000CA2D0020CB2D0020F0B58DB01EF01BF924
:104960000E4B02689A4217D1046941680894446961
:104970008268C36809948469C0690A9484466C4655
:1049800005910692079308A8E0C8E0C4604620603D
:104990000348006822F075FE0DB0F0BD55BA11C095
:1049A0005C290020F0B58FB00692426809939446C6
:1049B0000368040002939B6804300093634403601F
:1049C0000E001EF0F5F8059060681EF007F9431C14
:1049D00063600378A24A0193831C636043780021DB
:1049E0000093C31C63608378B5000393031D636069
:1049F000C3782000049323001033A360059B143078
:104A00009A1893000793C318E360079B0C331A00AE
:104A1000089324F0BDF9099B009A5B190B93059B41
:104A20009B1A039A0A939D1A2F1D009ABF00E7193B
:104A30000123B24264D2019A1A4207D13300009A8C
:104A40008849894803F02EFD07F048FE009B033596
:104A50009900099BAD005918009B6519F01A01F0E7
:104A600009FE009E043F68600022964200D070E07C
:104A7000069B002B03D1019B1B0700D4D6E0022329
:104A80000026019A1A400992B24204D0069820F0FA
:104A90009EFE060038600027029B0B9DDB68089392
:104AA000069B9F425ED10A9B029805339B00E1184A
:104AB0000A00049D0C30002D00D080E0049A920082
:104AC0008918079A2032A2188A4200D980E0143B44
:104AD0000693009B089A9B00D3180793039B9D4263
:104AE00000D27FE065680DA80D951EF061F82818CA
:104AF0000578461CFF2D00D0A7E066600FB0F0BD22
:104B0000019A1A4205D00335AD00584B6519043F90
:104B10006B60069B002BA7D1019B1B07A4D4009BB5
:104B2000049A9A1AB24212D8009A049B991A320037
:104B30008900009B9A4297D29300029D581828182A
:104B4000089D0069EB1AE31818610132F1E73300A0
:104B500076E7099908989300C958C31AE3181961B0
:104B6000013282E7009B039800221B189C462968AB
:104B7000944505D8099B002B1CD1CA083C490EE07E
:104B8000089B90001858884212D1059B013B9B1A44
:104B90009B00E3185A69002A05D0CA0835493248F3
:104BA00003F080FC50E76A685A610137083577E7FF
:104BB0000132DDE76A68300020F042FEF5E7166852
:104BC000002E02D1AE0086591660013D043272E714
:104BD000081D0968002903D1121A92102649DEE740
:104BE000010071E7069AAB00D71AE7193A69002A63
:104BF00016D1082000996E180899B6008E190799E9
:104C0000C958019B03420DD0049B029804339B00BA
:104C10001858043003F0B0FF002803D043683B610C
:104C200001355BE732681549D208B8E7039B002BD2
:104C300002D0134808F08EFD019B9B0700D451E77A
:104C4000039820F0C4FD38604CE7ED43059BED1858
:104C5000AD00651968690AF0EBFD6861300047E74F
:104C6000FDFFFF3F7407030050AC020004A00200E8
:104C7000DC070300AD070300FD0703002F08030056
:104C80005F0803000048704716FCFFFF00487047AC
:104C900016FCFFFF82B007B591B204920593052977
:104CA00009D01B2902D104A810F0C2FD002003B0D6
:104CB00008BC02B0184704AB5B88032BF6D106A9E9
:104CC0000822684624F048F80349049A059B0868BE
:104CD00011F026FFEAE7C046602900200022044BBD
:104CE0005A60044A08321A60034A13607047C0468B
:104CF0000C2A002060990200A02B0020F8B5214E5C
:104D00003568696801292DD9AA684B1ED05C0A282C
:104D100028D1002B01DC1C0009E0581E145C0A2C71
:104D2000F9D00300F5E7105D202802D10134A1423B
:104D3000F9D8002B0BDD601C814208D1581E0028D9
:104D400005D00138175C0A2F0CD0202FF7D052184D
:104D5000023AE31A14789B083A3C624254411C1907
:104D6000002C00D1F8BD084F04223900280022F0A1
:104D700092F90421380004F0EDFC3369013C04335E
:104D80003361EDE7142A00209B6F030010B5202249
:104D90000021024823F0FCFF10BDC046DC2E00209D
:104DA000084B10B5426818600020986018750138EB
:104DB000D86008005A601A6199611EF061FCFFF723
:104DC0009DFF10BD142A0020F8B503780400002BC5
:104DD0001ED0104D286E002804D0210024F022F8A7
:104DE000002815D0200024F027F8471C380021F0B7
:104DF00051FA061E0CD03A00210023F0ADFF2A0024
:104E0000054B5C321968043B99609342FAD12E66D7
:104E1000F8BDC0467C2E0020F42E0020F0B5B84C22
:104E200002002068A568436885B00193002D00D07A
:104E3000FDE0531E042B11D8636801998B4200D109
:104E400095E0012A00D12AE1022A07D1236962688C
:104E5000934200D94FE10122524288E0032A00D157
:104E600085E0042A00D12FE1052A00D107E1062AB6
:104E70000ED12369019A9342AD416D42002DEADDC6
:104E80002368290098682369C01804F063FC1FE0B8
:104E90000B2A21D1019B2269991A22F0BCF92368BF
:104EA000019A5B68934204D213002269981A04F0B5
:104EB00087FC2268236951689068C91AC01804F0F9
:104EC00049FC236858682369C01A401B04F066FC3B
:104ED00023695D192561BEE70E2A13D1E368002B13
:104EE000B9DB013BE3606268019B991A22F093F9F8
:104EF000E368002B18DB1633824A9B00D3189968AD
:104F000020680FE0102A16D1E368062BA3DC5D1C95
:104F10007C4A17339B00D318996800299BD063689B
:104F2000E560436022F03CF963682269D61A226882
:104F30005568ED1A0AE0152A0CD123696268616888
:104F40009A1A22F070F9236962689E1A0127002ECE
:104F50002FDCA4E70D2A0DD16B481EF091FB2068D1
:104F600022F003F96368C018FFF72EFF002210003B
:104F700005B0F0BD01231B2A62D0082A01D07F2A88
:104F800020D121696268914200D864E700238668D5
:104F9000B618F75C202F13D101339F18B942F8D807
:104FA0000426032B00DC033E891B320022F03BF970
:104FB0000127300004F0F2FB23699E1B266178E094
:104FC0000126F1E7092A28D1636822698068D11A8D
:104FD000C0184E4A03AB02F025FB061E00D13AE78B
:104FE0000027431C0BD1A0691EF04AFB63682269AD
:104FF000D11A22689068C01804F0ACFB4FE723690F
:105000002068F918039B01375A1C03921A7822F082
:10501000F0F8BE42F3D1350041E71300203B5E2B90
:1050200000D918E7216922F0EDF8012537E7012DB5
:1050300008D104234F2A03D002235B2A00D0002387
:10504000A36008E7022D20D11300303B092B03D8C1
:1050500003232275A360FEE60023A360412A00D14A
:1050600052E7422A00D139E7432A00D101E7442A16
:1050700000D1EBE6482A12D0462A00D0EBE6002702
:10508000019B22693E009D1A0EE00021032D29D1CB
:105090007E2A24D1237D312B01D0372B0DD1002541
:1050A0002F00236962689E1A0023A3609E4200DDE0
:1050B0007FE7002F00D1E1E6F1E61A00FB25343A44
:1050C0002A42DCD0332B0AD12169019B994206D2B6
:1050D000012222F0A8F8002501272E00E4E7002590
:1050E0002F00FAE7042D04D1462AC8D0482AD6D08A
:1050F000A5E7A160AFE6002501262F0059E7C046CD
:10510000142A00207C2E00209C3F030044E802006B
:10511000044B88600B60044B08004B600023CB609D
:105120007047C0462C980200FD2B020013B5040006
:10513000080001A9FBF746FF002C03D0012C07D083
:10514000002004E0019B0548002B00D1044816BD57
:1051500001991EF0AFF840002043F8E78CE7020009
:1051600084E70200F0B585B00400080003A915002B
:10517000FBF728FF0600002D07D10300039A2F49F3
:10518000200021F02BFE05B0F0BD039B0200C318E8
:10519000002101200193019B934206D82727002973
:1051A00000D0053F3A0026491AE01378272B08D093
:1051B000223B5D426B41DBB20132002BEBD0272753
:1051C000F0E700230100F7E730001EF040F805008B
:1051D00030001EF057F80600AF4205D13A001949D9
:1051E000200021F0FBFD14E017495C2D0ED02B00B0
:1051F000203B5E2B01D82A00D5E714490A2D05D0A3
:1052000013490D2D02D0092D0CD11249200021F097
:1052100024FD019BB342D7D83A000949200021F070
:10522000DDFDB0E7FF2D02D82A000B49D8E70B4B74
:105230002A000B499D42D3D90A49D1E7C300030094
:105240004200030041000300450003004800030042
:105250004B0003004E00030051000300FFFF00005D
:10526000C8080300CF080300F7B51E0008AB1D787F
:10527000294B0C001700984206D12B003200390050
:10528000FDF7D4FC2018FEBDF30715D57610019666
:10529000019BE219002B2ADA00213F260127501E2C
:1052A000A04219D2002900D001932000002DEAD19C
:1052B0001A491B481FF0A2FB01A93000FDF71CFC96
:1052C0000028E5D130001DF096F916490200164875
:1052D00003F0E8F807F002FA0278B243802A01D01E
:1052E00039000133421E002BCDD01000D8E720003A
:1052F000012600243F27904204D3002C00D00193C4
:105300001000D3E7013BBED3340001300178B9432C
:105310008029F0D10130F9E760920200AE08030065
:1053200044A902008608030050AC0200F0B587B023
:1053300004000E001700FDF7B9FA02A905002000CD
:10534000FBF740FE0400042F4ED1B30734D1274BA6
:1053500032689A4230D105AB04AA03A930001DF08F
:1053600082FE059B224FBB4204D0032B02D0214872
:1053700008F01EFA039B2600BB4207D00122210041
:1053800000922800029AFFF76FFF0600029A049B22
:10539000A118BB4206D00121280000912100FFF78F
:1053A00063FF01000E208E4204D88A1B28003100C2
:1053B0001CF0DAFF07B0F0BD0023029A0093210031
:1053C00033002800FFF750FF0278012153B2002B71
:1053D00006DA4023012101E001315B081342FBD1D1
:1053E0000122FBF7B5FDE5E70020E3E7A8A40200F2
:1053F000A4B3020066FC020010B504000C2020F0EB
:105400003CFF034B4460036001235B42836010BD9B
:10541000C89A020001220020074B08495A60086020
:10542000A821DA60064AC9005A5006495A50043188
:105430005A5005495A50704700A000400CAC00403B
:10544000FCFF0000440500004C050000034B04482D
:105450001B78002B00D103487047C046CD2D00209B
:105460008CE7020084E70200F8B5A826324A334BE5
:10547000F600196813680420CB18C9181160304A67
:105480008C4612781B11170009112E4A2E4C2F4DF5
:10549000002F48D0002B3ADA9051C31AA920C0003F
:1054A000135081239B00002937DA591A13515151A7
:1054B0000123274CD3602378002B22D03F2225489C
:1054C000254B01688C331B6801310A409D5C1C4BE5
:1054D0001B78002B01D0803D6D001C2302606246CA
:1054E0006B4308339B1A154A9B1013601F23194006
:1054F00007D11A4B1A78002A03D01948197009F0FD
:1055000069FA01232278042053402370F8BDA927AB
:105510000433FF00D0519351C3E7535181239B00C3
:10552000C9181151C4E7043390515351A920812364
:10553000C0009B001350F3E7302A0020402A0020CF
:10554000D800002000A000404C05000044050000E9
:10555000CC2D0020342A00207C2E0020D9000020F1
:10556000BB2C020030B585B001220400080001A95F
:10557000FDF73EFC029A202A00D920220023019D3B
:10558000934204D0E85CE11808710133F8E7014860
:1055900005B030BDA4B3020070B5040008001500CA
:1055A000FDF76CFA1F2802D90C4807F00FFF002DF9
:1055B00002D10B4808F0CEF82418042D04D10120A4
:1055C00023795B00184370BD2800FDF757FAFF28C8
:1055D00001D90448E9E720710348F4E7080903000A
:1055E0001C09030039FC0200A4B302000123A0221D
:1055F000834010B5134CD20513510300C133124C34
:10560000FF339B009C50114B8900C918A223DB007B
:10561000CA580F4C00022240CA50F82252011040D2
:10562000C022CC589202224310430322C850CC58C7
:10563000084822432043C850C046C046C046CA500E
:1056400010BDC0460C0500000303000000600040D0
:10565000FFE0ECFF031F0000A0221E21114BD2002F
:1056600070B59C58104D8C439C50A324E4001D51F0
:105670000E4C0F4D0F4E5C5104355E510E4D8000A7
:105680005C51A5240D4DE4001D51084C0C4D001932
:105690000C4C185104341D510B4C185198580143AF
:1056A000995070BD00F0014040A1004000600040F2
:1056B0001C05000044A100402405000048A1004052
:1056C0004CA100402C0500003405000010B504007A
:1056D0000A4903F0F5FB0A4BA0211C600123607905
:1056E000084A8340C9058B500021FFF77FFF002047
:1056F000FFF7B2FF0022044B1A7010BDD8B10200B0
:10570000382A00200C050000D800002070B50D00DC
:105710000400134E2800310003F0D2FB31002000BA
:1057200003F0CEFB0F4BA0221C600F4BD2051D6077
:10573000607901242100814026000C4BD150697909
:105740008E400021D650FFF751FF68792100FFF706
:105750004DFF2000FFF780FF054B1C7070BDC04659
:10576000D8B10200382A00203C2A00200C05000095
:10577000D8000020F8B50025FFF74CFE214B28008B
:1057800090331D6009F0F4F8A0221E201E4B1F4923
:105790001D701F4BD2001D601E4B1F4C1D608B588F
:1057A0001E4F83438B50A223DB00E2581C4E3A402D
:1057B000E250E2581B493243E2500122E5501A4BB5
:1057C000186843799A401300A022D205535003F081
:1057D00061FB164B1B78AB4213D0154B1149E258B5
:1057E0001740E750E25816430122E650E550114BAE
:1057F000186843799A401300A022D205535003F051
:1058000049FBF8BD7C2E0020CD2D002000F001408A
:10581000302A0020402A002000600040FFE0ECFF1A
:10582000001F03000C050000382A0020D8000020CB
:10583000140500003C2A0020F0B53E4E8DB0330028
:1058400090331B680500002B03D1FFF793FF0DB0C9
:10585000F0BD002801D008F097FA684606F018FF5E
:10586000002822D133009033186807F0B9F90400FA
:1058700006F02CFF002D01D008F090FA2E4B2022CC
:105880001D6833006D118C3301356D011B681540A7
:105890005D19002C2DD1903621002800346023F0B2
:1058A00077FA0122254B1A70D1E7002D01D008F0BC
:1058B00075FA019B2249186806F00EFA00240500CB
:1058C000A042DBD1019F3800FCF7F0FF1D4B98424E
:1058D0000BD12900012000F0CDFE2A000400F86061
:1058E0001F211948FBF734FBA060019B0024B3641F
:1058F000C4E72000FCF7DAFF144B984209D03300CC
:1059000000229033124913481A601DF06FFCB064F6
:105910009DE763682B60A3686B60E368AB602369F5
:10592000EB6063692B61A3696B61E369AB61236A17
:10593000EB61B6E77C2E0020342A0020D90000203D
:105940009CAB020034AA0200D6080300AC9B020004
:10595000F608030050AC020010B5FFF70BFF01483A
:1059600010BDC046A4B30200F0B589B00493734BD8
:1059700003901B780E001500002B01D0FFF7FAFEF4
:105980006F4C8C342368002B06D16D4A4020903236
:10599000136020F072FC206080226A4BD200DA672C
:1059A0000122694C694BE250FFF734FD0023684A3D
:1059B000F021A3500432A3500832A350C22209039D
:1059C0009200A150634F093AFF3AA3500594BE429A
:1059D00000D0A3E0B54200D09DE05F4D07AC2800A9
:1059E00003F062FA002805D001235C4928002370E7
:1059F00003F066FA5A4D280003F056FA002805D045
:105A0000012356492800637003F05AFA554D2800C7
:105A100003F04AFA002805D0012350492800A3705A
:105A200003F04EFA002307AA5F1C9B5C002B39D0C1
:105A30004D4ABB00043BD458A02203213D006379AA
:105A4000D205C133FF339B00995007ABEB5C002BB1
:105A500026D00426444BAA00D3580193012263792F
:105A6000A0219A40A123C905DB00CA50019B053340
:105A7000180002931DF001F9012811D16379A021CA
:105A800098403A4BC905C85002981DF0F6F8002816
:105A900006D1013E002EE1D1019949E00225D4E76B
:105AA000022DFBD10123022FBDD12B4801F0BEFCFA
:105AB000FFF70CFE0021039807F058F80025012499
:105AC0003F221F4B802190331860294B1D70294BBA
:105AD0001C70294B1A601A4B12198C33186823F06A
